{
  "contractName": "Stoppable",
  "abi": [
    {
      "constant": true,
      "inputs": [],
      "name": "owner",
      "outputs": [
        {
          "name": "",
          "type": "address"
        }
      ],
      "payable": false,
      "stateMutability": "view",
      "type": "function"
    },
    {
      "constant": false,
      "inputs": [
        {
          "name": "newOwner",
          "type": "address"
        }
      ],
      "name": "changeOwner",
      "outputs": [
        {
          "name": "success",
          "type": "bool"
        }
      ],
      "payable": false,
      "stateMutability": "nonpayable",
      "type": "function"
    },
    {
      "inputs": [],
      "payable": false,
      "stateMutability": "nonpayable",
      "type": "constructor"
    },
    {
      "anonymous": false,
      "inputs": [
        {
          "indexed": false,
          "name": "sender",
          "type": "address"
        }
      ],
      "name": "LogPausedContract",
      "type": "event"
    },
    {
      "anonymous": false,
      "inputs": [
        {
          "indexed": false,
          "name": "sender",
          "type": "address"
        }
      ],
      "name": "LogResumeContract",
      "type": "event"
    },
    {
      "anonymous": false,
      "inputs": [
        {
          "indexed": false,
          "name": "sender",
          "type": "address"
        },
        {
          "indexed": false,
          "name": "newOwner",
          "type": "address"
        }
      ],
      "name": "LogChangeOwner",
      "type": "event"
    },
    {
      "constant": false,
      "inputs": [],
      "name": "pauseContract",
      "outputs": [
        {
          "name": "success",
          "type": "bool"
        }
      ],
      "payable": false,
      "stateMutability": "nonpayable",
      "type": "function"
    },
    {
      "constant": false,
      "inputs": [],
      "name": "resumeContract",
      "outputs": [
        {
          "name": "success",
          "type": "bool"
        }
      ],
      "payable": false,
      "stateMutability": "nonpayable",
      "type": "function"
    }
  ],
  "bytecode": "0x608060405234801561001057600080fd5b50336000806101000a81548173ffffffffffffffffffffffffffffffffffffffff021916908373ffffffffffffffffffffffffffffffffffffffff1602179055506001600060146101000a81548160ff02191690831515021790555061051a8061007b6000396000f300608060405260043610610062576000357c0100000000000000000000000000000000000000000000000000000000900463ffffffff168063439766ce146100675780638da5cb5b14610096578063a6f9dae1146100ed578063c4bc5da514610148575b600080fd5b34801561007357600080fd5b5061007c610177565b604051808215151515815260200191505060405180910390f35b3480156100a257600080fd5b506100ab610273565b604051808273ffffffffffffffffffffffffffffffffffffffff1673ffffffffffffffffffffffffffffffffffffffff16815260200191505060405180910390f35b3480156100f957600080fd5b5061012e600480360381019080803573ffffffffffffffffffffffffffffffffffffffff169060200190929190505050610298565b604051808215151515815260200191505060405180910390f35b34801561015457600080fd5b5061015d6103d5565b604051808215151515815260200191505060405180910390f35b60003373ffffffffffffffffffffffffffffffffffffffff166000809054906101000a900473ffffffffffffffffffffffffffffffffffffffff1673ffffffffffffffffffffffffffffffffffffffff161415156101d457600080fd5b600060149054906101000a900460ff1615156101ef57600080fd5b60008060146101000a81548160ff0219169083151502179055507f0f16e24f375b1dbe1f5a889ed7cfe74cc12486509f3d710d14078f001874362233604051808273ffffffffffffffffffffffffffffffffffffffff1673ffffffffffffffffffffffffffffffffffffffff16815260200191505060405180910390a16001905090565b6000809054906101000a900473ffffffffffffffffffffffffffffffffffffffff1681565b60003373ffffffffffffffffffffffffffffffffffffffff166000809054906101000a900473ffffffffffffffffffffffffffffffffffffffff1673ffffffffffffffffffffffffffffffffffffffff161415156102f557600080fd5b816000806101000a81548173ffffffffffffffffffffffffffffffffffffffff021916908373ffffffffffffffffffffffffffffffffffffffff1602179055507f96b36bedce75759b139551b10b3d2e1e863dbbfbdc30f9f9e374bb24431d5da23383604051808373ffffffffffffffffffffffffffffffffffffffff1673ffffffffffffffffffffffffffffffffffffffff1681526020018273ffffffffffffffffffffffffffffffffffffffff1673ffffffffffffffffffffffffffffffffffffffff1681526020019250505060405180910390a160019050919050565b60003373ffffffffffffffffffffffffffffffffffffffff166000809054906101000a900473ffffffffffffffffffffffffffffffffffffffff1673ffffffffffffffffffffffffffffffffffffffff1614151561043257600080fd5b600060149054906101000a900460ff16151561044d57600080fd5b600060149054906101000a900460ff1615151561046957600080fd5b6001600060146101000a81548160ff0219169083151502179055507f1f98e15848335d04a3b0c6ed4988542831246d3ae2250d2ad35485b34e6945b033604051808273ffffffffffffffffffffffffffffffffffffffff1673ffffffffffffffffffffffffffffffffffffffff16815260200191505060405180910390a160019050905600a165627a7a723058202e2685740ac1f27e14b1840aba7ada099f7cedfdbc0a1e314bd957c9613a96780029",
  "source": "pragma solidity ^0.4.18;\n\n\nimport \"./Owned.sol\";\n\ncontract Stoppable is Owned {\n    bool isRunning;\n    \n    event LogPausedContract(address sender);\n    event LogResumeContract(address sender);\n    \n    modifier onlyIfRunning {\n        require(isRunning);\n        _;\n    }\n    \n    constructor() public  {\n        isRunning = true;\n    }\n    \n    function pauseContract() public onlyOwner onlyIfRunning returns(bool success) {\n        isRunning = false;\n        emit LogPausedContract(msg.sender);\n        return true;\n    }\n    \n    function resumeContract() public onlyOwner onlyIfRunning returns(bool success) {\n        require(!isRunning);\n        isRunning = true;\n        emit LogResumeContract(msg.sender);\n        return true;\n    }\n}\n",
  "sourcePath": "/home/kerol/DAPPS/Splitter/contracts/Stoppable.sol",
  "compiler": {
    "name": "solc",
    "version": "0.4.24+commit.e67f0147.Emscripten.clang"
  },
  "schemaVersion": "2.0.1",
  "updatedAt": "2018-08-09T08:47:20.432Z"
}